{
  "contractName": "GenericERC20Stake",
  "abi": [
    {
      "inputs": [
        {
          "internalType": "address",
          "name": "genericERC20Address",
          "type": "address"
        }
      ],
      "stateMutability": "nonpayable",
      "type": "constructor"
    },
    {
      "anonymous": false,
      "inputs": [
        {
          "indexed": true,
          "internalType": "address",
          "name": "user",
          "type": "address"
        },
        {
          "indexed": false,
          "internalType": "uint256",
          "name": "amount",
          "type": "uint256"
        }
      ],
      "name": "Deposit",
      "type": "event"
    },
    {
      "anonymous": false,
      "inputs": [
        {
          "indexed": true,
          "internalType": "address",
          "name": "user",
          "type": "address"
        },
        {
          "indexed": false,
          "internalType": "uint256",
          "name": "amount",
          "type": "uint256"
        }
      ],
      "name": "Withdraw",
      "type": "event"
    },
    {
      "inputs": [],
      "name": "GE20",
      "outputs": [
        {
          "internalType": "address",
          "name": "",
          "type": "address"
        }
      ],
      "stateMutability": "view",
      "type": "function",
      "constant": true
    },
    {
      "inputs": [
        {
          "internalType": "address",
          "name": "",
          "type": "address"
        }
      ],
      "name": "userInfo",
      "outputs": [
        {
          "internalType": "uint256",
          "name": "amountStaked",
          "type": "uint256"
        },
        {
          "internalType": "string",
          "name": "waxWalletAddress",
          "type": "string"
        },
        {
          "internalType": "bool",
          "name": "exists",
          "type": "bool"
        }
      ],
      "stateMutability": "view",
      "type": "function",
      "constant": true
    },
    {
      "inputs": [],
      "name": "getTotalStakes",
      "outputs": [
        {
          "internalType": "uint256",
          "name": "",
          "type": "uint256"
        }
      ],
      "stateMutability": "view",
      "type": "function",
      "constant": true
    },
    {
      "inputs": [],
      "name": "getStakerInfo",
      "outputs": [
        {
          "internalType": "uint256",
          "name": "",
          "type": "uint256"
        },
        {
          "internalType": "address[]",
          "name": "",
          "type": "address[]"
        },
        {
          "internalType": "uint256[]",
          "name": "",
          "type": "uint256[]"
        }
      ],
      "stateMutability": "view",
      "type": "function",
      "constant": true
    },
    {
      "inputs": [
        {
          "internalType": "uint256",
          "name": "amount",
          "type": "uint256"
        },
        {
          "internalType": "string",
          "name": "waxAddress",
          "type": "string"
        }
      ],
      "name": "deposit",
      "outputs": [
        {
          "internalType": "uint256",
          "name": "",
          "type": "uint256"
        },
        {
          "internalType": "uint256",
          "name": "",
          "type": "uint256"
        }
      ],
      "stateMutability": "nonpayable",
      "type": "function"
    },
    {
      "inputs": [
        {
          "internalType": "uint256",
          "name": "amount",
          "type": "uint256"
        }
      ],
      "name": "withdraw",
      "outputs": [
        {
          "internalType": "uint256",
          "name": "",
          "type": "uint256"
        },
        {
          "internalType": "uint256",
          "name": "",
          "type": "uint256"
        }
      ],
      "stateMutability": "nonpayable",
      "type": "function"
    },
    {
      "inputs": [
        {
          "internalType": "string",
          "name": "waxAddress",
          "type": "string"
        }
      ],
      "name": "changeWaxAddress",
      "outputs": [],
      "stateMutability": "nonpayable",
      "type": "function"
    }
  ],
  "bytecode": "0x60806040523480156200001157600080fd5b50604051620020113803806200201183398181016040528101906200003791906200009e565b600160008190555080600260006101000a81548173ffffffffffffffffffffffffffffffffffffffff021916908373ffffffffffffffffffffffffffffffffffffffff1602179055505062000118565b6000815190506200009881620000fe565b92915050565b600060208284031215620000b157600080fd5b6000620000c18482850162000087565b91505092915050565b6000620000d782620000de565b9050919050565b600073ffffffffffffffffffffffffffffffffffffffff82169050919050565b6200010981620000ca565b81146200011557600080fd5b50565b611ee980620001286000396000f3fe608060405234801561001057600080fd5b506004361061007d5760003560e01c80636431d2ec1161005b5780636431d2ec1461010157806368c33627146101215780637e0c51e81461013f578063f1215d251461015d5761007d565b80631959a002146100825780632e1a7d4d146100b4578063616d32bd146100e5575b600080fd5b61009c6004803603810190610097919061149e565b61018e565b6040516100ab93929190611b8a565b60405180910390f35b6100ce60048036038101906100c99190611535565b61024d565b6040516100dc929190611bc8565b60405180910390f35b6100ff60048036038101906100fa91906114f0565b6105c2565b005b61010961071c565b60405161011893929190611b45565b60405180910390f35b610129610a0b565b6040516101369190611b2a565b60405180910390f35b610147610a15565b604051610154919061198f565b60405180910390f35b61017760048036038101906101729190611587565b610a3b565b604051610185929190611bc8565b60405180910390f35b60016020528060005260406000206000915090508060000154908060010180546101b790611d84565b80601f01602080910402602001604051908101604052809291908181526020018280546101e390611d84565b80156102305780601f1061020557610100808354040283529160200191610230565b820191906000526020600020905b81548152906001019060200180831161021357829003601f168201915b5050505050908060020160009054906101000a900460ff16905083565b60008060026000541415610296576040517f08c379a000000000000000000000000000000000000000000000000000000000815260040161028d90611b0a565b60405180910390fd5b6002600081905550600083116102e1576040517f08c379a00000000000000000000000000000000000000000000000000000000081526004016102d890611a8a565b60405180910390fd5b6000600160003373ffffffffffffffffffffffffffffffffffffffff1673ffffffffffffffffffffffffffffffffffffffff1681526020019081526020016000209050806000015484111561036b576040517f08c379a000000000000000000000000000000000000000000000000000000000815260040161036290611aca565b60405180910390fd5b610382848260000154610f6890919063ffffffff16565b8160000181905550600260009054906101000a900473ffffffffffffffffffffffffffffffffffffffff1673ffffffffffffffffffffffffffffffffffffffff1663a9059cbb33866040518363ffffffff1660e01b81526004016103e79291906119e1565b602060405180830381600087803b15801561040157600080fd5b505af1158015610415573d6000803e3d6000fd5b505050506040513d601f19601f8201168201806040525081019061043991906114c7565b610478576040517f08c379a000000000000000000000000000000000000000000000000000000000815260040161046f90611a4a565b60405180910390fd5b8060020160009054906101000a900460ff16801561049a575060008160000154145b156104a9576104a833610f7e565b5b600260009054906101000a900473ffffffffffffffffffffffffffffffffffffffff1673ffffffffffffffffffffffffffffffffffffffff166370a08231306040518263ffffffff1660e01b8152600401610504919061198f565b60206040518083038186803b15801561051c57600080fd5b505afa158015610530573d6000803e3d6000fd5b505050506040513d601f19601f82011682018060405250810190610554919061155e565b6004819055503373ffffffffffffffffffffffffffffffffffffffff167f884edad9ce6fa2440d8a54cc123490eb96d2768479d49ff9c7366125a9424364856040516105a09190611b2a565b60405180910390a2806000015460045492509250506001600081905550915091565b60026000541415610608576040517f08c379a00000000000000000000000000000000000000000000000000000000081526004016105ff90611b0a565b60405180910390fd5b60026000819055506018828290501115610657576040517f08c379a000000000000000000000000000000000000000000000000000000000815260040161064e90611a0a565b60405180910390fd5b6000600160003373ffffffffffffffffffffffffffffffffffffffff1673ffffffffffffffffffffffffffffffffffffffff16815260200190815260200160002090508060020160009054906101000a900460ff1680156106bc575060008160000154115b6106fb576040517f08c379a00000000000000000000000000000000000000000000000000000000081526004016106f290611aaa565b60405180910390fd5b828282600101919061070e92919061131d565b505060016000819055505050565b6000606080600060038054905067ffffffffffffffff811115610768577f4e487b7100000000000000000000000000000000000000000000000000000000600052604160045260246000fd5b6040519080825280602002602001820160405280156107965781602001602082028036833780820191505090505b509050600060038054905067ffffffffffffffff8111156107e0577f4e487b7100000000000000000000000000000000000000000000000000000000600052604160045260246000fd5b60405190808252806020026020018201604052801561080e5781602001602082028036833780820191505090505b50905060005b6003805490508110156109f8576003818154811061085b577f4e487b7100000000000000000000000000000000000000000000000000000000600052603260045260246000fd5b9060005260206000200160009054906101000a900473ffffffffffffffffffffffffffffffffffffffff168382815181106108bf577f4e487b7100000000000000000000000000000000000000000000000000000000600052603260045260246000fd5b602002602001019073ffffffffffffffffffffffffffffffffffffffff16908173ffffffffffffffffffffffffffffffffffffffff16815250506001600060038381548110610937577f4e487b7100000000000000000000000000000000000000000000000000000000600052603260045260246000fd5b9060005260206000200160009054906101000a900473ffffffffffffffffffffffffffffffffffffffff1673ffffffffffffffffffffffffffffffffffffffff1673ffffffffffffffffffffffffffffffffffffffff168152602001908152602001600020600001548282815181106109d9577f4e487b7100000000000000000000000000000000000000000000000000000000600052603260045260246000fd5b60200260200101818152505080806109f090611db6565b915050610814565b5060045482829450945094505050909192565b6000600454905090565b600260009054906101000a900473ffffffffffffffffffffffffffffffffffffffff1681565b60008060026000541415610a84576040517f08c379a0000000000000000000000000000000000000000000000000000000008152600401610a7b90611b0a565b60405180910390fd5b60026000819055506000600260009054906101000a900473ffffffffffffffffffffffffffffffffffffffff1673ffffffffffffffffffffffffffffffffffffffff166370a08231336040518263ffffffff1660e01b8152600401610ae9919061198f565b60206040518083038186803b158015610b0157600080fd5b505afa158015610b15573d6000803e3d6000fd5b505050506040513d601f19601f82011682018060405250810190610b39919061155e565b11610b79576040517f08c379a0000000000000000000000000000000000000000000000000000000008152600401610b7090611a2a565b60405180910390fd5b84600260009054906101000a900473ffffffffffffffffffffffffffffffffffffffff1673ffffffffffffffffffffffffffffffffffffffff166370a08231336040518263ffffffff1660e01b8152600401610bd5919061198f565b60206040518083038186803b158015610bed57600080fd5b505afa158015610c01573d6000803e3d6000fd5b505050506040513d601f19601f82011682018060405250810190610c25919061155e565b1015610c66576040517f08c379a0000000000000000000000000000000000000000000000000000000008152600401610c5d90611aea565b60405180910390fd5b6018848490501115610cad576040517f08c379a0000000000000000000000000000000000000000000000000000000008152600401610ca490611a0a565b60405180910390fd5b600260009054906101000a900473ffffffffffffffffffffffffffffffffffffffff1673ffffffffffffffffffffffffffffffffffffffff166323b872dd3330886040518463ffffffff1660e01b8152600401610d0c939291906119aa565b602060405180830381600087803b158015610d2657600080fd5b505af1158015610d3a573d6000803e3d6000fd5b505050506040513d601f19601f82011682018060405250810190610d5e91906114c7565b610d9d576040517f08c379a0000000000000000000000000000000000000000000000000000000008152600401610d9490611a6a565b60405180910390fd5b6000600160003373ffffffffffffffffffffffffffffffffffffffff1673ffffffffffffffffffffffffffffffffffffffff16815260200190815260200160002090508060020160009054906101000a900460ff16158015610e03575060008160000154145b15610e1857610e1333868661116d565b610e2d565b8484826001019190610e2b92919061131d565b505b610e4486826000015461122f90919063ffffffff16565b8160000181905550600260009054906101000a900473ffffffffffffffffffffffffffffffffffffffff1673ffffffffffffffffffffffffffffffffffffffff166370a08231306040518263ffffffff1660e01b8152600401610ea7919061198f565b60206040518083038186803b158015610ebf57600080fd5b505afa158015610ed3573d6000803e3d6000fd5b505050506040513d601f19601f82011682018060405250810190610ef7919061155e565b6004819055503373ffffffffffffffffffffffffffffffffffffffff167fe1fffcc4923d04b559f4d29a8bfc6cda04eb5b0d3c460751c2402c5c5cc9109c87604051610f439190611b2a565b60405180910390a2806000015460045492509250506001600081905550935093915050565b60008183610f769190611cd5565b905092915050565b600080610f8a83611245565b91509150811561116857600160008473ffffffffffffffffffffffffffffffffffffffff1673ffffffffffffffffffffffffffffffffffffffff168152602001908152602001600020600080820160009055600182016000610fec91906113a3565b6002820160006101000a81549060ff02191690555050600360016003805490506110169190611cd5565b8154811061104d577f4e487b7100000000000000000000000000000000000000000000000000000000600052603260045260246000fd5b9060005260206000200160009054906101000a900473ffffffffffffffffffffffffffffffffffffffff16600382815481106110b2577f4e487b7100000000000000000000000000000000000000000000000000000000600052603260045260246000fd5b9060005260206000200160006101000a81548173ffffffffffffffffffffffffffffffffffffffff021916908373ffffffffffffffffffffffffffffffffffffffff1602179055506003805480611132577f4e487b7100000000000000000000000000000000000000000000000000000000600052603160045260246000fd5b6001900381819060005260206000200160006101000a81549073ffffffffffffffffffffffffffffffffffffffff021916905590555b505050565b6003839080600181540180825580915050600190039060005260206000200160009091909190916101000a81548173ffffffffffffffffffffffffffffffffffffffff021916908373ffffffffffffffffffffffffffffffffffffffff16021790555060018060008573ffffffffffffffffffffffffffffffffffffffff1673ffffffffffffffffffffffffffffffffffffffff16815260200190815260200160002060020160006101000a81548160ff021916908315150217905550505050565b6000818361123d9190611c7f565b905092915050565b600080600091506000905060005b600380549050811015611317576003818154811061129a577f4e487b7100000000000000000000000000000000000000000000000000000000600052603260045260246000fd5b9060005260206000200160009054906101000a900473ffffffffffffffffffffffffffffffffffffffff1673ffffffffffffffffffffffffffffffffffffffff168473ffffffffffffffffffffffffffffffffffffffff1614156113045760019250809150611317565b808061130f90611db6565b915050611253565b50915091565b82805461132990611d84565b90600052602060002090601f01602090048101928261134b5760008555611392565b82601f1061136457803560ff1916838001178555611392565b82800160010185558215611392579182015b82811115611391578235825591602001919060010190611376565b5b50905061139f91906113e3565b5090565b5080546113af90611d84565b6000825580601f106113c157506113e0565b601f0160209004906000526020600020908101906113df91906113e3565b5b50565b5b808211156113fc5760008160009055506001016113e4565b5090565b60008135905061140f81611e6e565b92915050565b60008151905061142481611e85565b92915050565b60008083601f84011261143c57600080fd5b8235905067ffffffffffffffff81111561145557600080fd5b60208301915083600182028301111561146d57600080fd5b9250929050565b60008135905061148381611e9c565b92915050565b60008151905061149881611e9c565b92915050565b6000602082840312156114b057600080fd5b60006114be84828501611400565b91505092915050565b6000602082840312156114d957600080fd5b60006114e784828501611415565b91505092915050565b6000806020838503121561150357600080fd5b600083013567ffffffffffffffff81111561151d57600080fd5b6115298582860161142a565b92509250509250929050565b60006020828403121561154757600080fd5b600061155584828501611474565b91505092915050565b60006020828403121561157057600080fd5b600061157e84828501611489565b91505092915050565b60008060006040848603121561159c57600080fd5b60006115aa86828701611474565b935050602084013567ffffffffffffffff8111156115c757600080fd5b6115d38682870161142a565b92509250509250925092565b60006115eb838361160f565b60208301905092915050565b60006116038383611971565b60208301905092915050565b61161881611d09565b82525050565b61162781611d09565b82525050565b600061163882611c11565b6116428185611c4c565b935061164d83611bf1565b8060005b8381101561167e57815161166588826115df565b975061167083611c32565b925050600181019050611651565b5085935050505092915050565b600061169682611c1c565b6116a08185611c5d565b93506116ab83611c01565b8060005b838110156116dc5781516116c388826115f7565b97506116ce83611c3f565b9250506001810190506116af565b5085935050505092915050565b6116f281611d1b565b82525050565b600061170382611c27565b61170d8185611c6e565b935061171d818560208601611d51565b61172681611e5d565b840191505092915050565b600061173e601383611c6e565b91507f696e76616c6964205741582061646472657373000000000000000000000000006000830152602082019050919050565b600061177e601983611c6e565b91507f63616e6e6f74207374616b6520776974686f757420636f696e000000000000006000830152602082019050919050565b60006117be601883611c6e565b91507f7472616e73666572206f7574206f6620636f6e747261637400000000000000006000830152602082019050919050565b60006117fe601683611c6e565b91507f7472616e7366657220696e746f20636f6e7472616374000000000000000000006000830152602082019050919050565b600061183e601f83611c6e565b91507f63616e6e6f7420756e7374616b65206e6567617469766520616d6f756e7473006000830152602082019050919050565b600061187e601a83611c6e565b91507f7374616b65686f6c64657220646f6573206e6f742065786973740000000000006000830152602082019050919050565b60006118be601f83611c6e565b91507f63616e6e6f7420756e7374616b65206d6f7265207468616e207374616b6564006000830152602082019050919050565b60006118fe601f83611c6e565b91507f63616e6e6f74207374616b65206d6f7265207468616e20796f752068617665006000830152602082019050919050565b600061193e601f83611c6e565b91507f5265656e7472616e637947756172643a207265656e7472616e742063616c6c006000830152602082019050919050565b61197a81611d47565b82525050565b61198981611d47565b82525050565b60006020820190506119a4600083018461161e565b92915050565b60006060820190506119bf600083018661161e565b6119cc602083018561161e565b6119d96040830184611980565b949350505050565b60006040820190506119f6600083018561161e565b611a036020830184611980565b9392505050565b60006020820190508181036000830152611a2381611731565b9050919050565b60006020820190508181036000830152611a4381611771565b9050919050565b60006020820190508181036000830152611a63816117b1565b9050919050565b60006020820190508181036000830152611a83816117f1565b9050919050565b60006020820190508181036000830152611aa381611831565b9050919050565b60006020820190508181036000830152611ac381611871565b9050919050565b60006020820190508181036000830152611ae3816118b1565b9050919050565b60006020820190508181036000830152611b03816118f1565b9050919050565b60006020820190508181036000830152611b2381611931565b9050919050565b6000602082019050611b3f6000830184611980565b92915050565b6000606082019050611b5a6000830186611980565b8181036020830152611b6c818561162d565b90508181036040830152611b80818461168b565b9050949350505050565b6000606082019050611b9f6000830186611980565b8181036020830152611bb181856116f8565b9050611bc060408301846116e9565b949350505050565b6000604082019050611bdd6000830185611980565b611bea6020830184611980565b9392505050565b6000819050602082019050919050565b6000819050602082019050919050565b600081519050919050565b600081519050919050565b600081519050919050565b6000602082019050919050565b6000602082019050919050565b600082825260208201905092915050565b600082825260208201905092915050565b600082825260208201905092915050565b6000611c8a82611d47565b9150611c9583611d47565b9250827fffffffffffffffffffffffffffffffffffffffffffffffffffffffffffffffff03821115611cca57611cc9611dff565b5b828201905092915050565b6000611ce082611d47565b9150611ceb83611d47565b925082821015611cfe57611cfd611dff565b5b828203905092915050565b6000611d1482611d27565b9050919050565b60008115159050919050565b600073ffffffffffffffffffffffffffffffffffffffff82169050919050565b6000819050919050565b60005b83811015611d6f578082015181840152602081019050611d54565b83811115611d7e576000848401525b50505050565b60006002820490506001821680611d9c57607f821691505b60208210811415611db057611daf611e2e565b5b50919050565b6000611dc182611d47565b91507fffffffffffffffffffffffffffffffffffffffffffffffffffffffffffffffff821415611df457611df3611dff565b5b600182019050919050565b7f4e487b7100000000000000000000000000000000000000000000000000000000600052601160045260246000fd5b7f4e487b7100000000000000000000000000000000000000000000000000000000600052602260045260246000fd5b6000601f19601f8301169050919050565b611e7781611d09565b8114611e8257600080fd5b50565b611e8e81611d1b565b8114611e9957600080fd5b50565b611ea581611d47565b8114611eb057600080fd5b5056fea264697066735822122078fb5bd1a36101855420db7700f1e59fcf4edb451fdf6ab5a4288fcbd7741dcc64736f6c63430008000033",
  "immutableReferences": {},
  "source": "// SPDX-License-Identifier: MIT\r\npragma solidity ^0.8.0;\r\n\r\nimport \"@openzeppelin/contracts/utils/math/SafeMath.sol\";\r\nimport \"@openzeppelin/contracts/security/ReentrancyGuard.sol\";\r\nimport \"./IGenericERC20.sol\";\r\n\r\n// Contract designed to hold and stake Generic ERC20 Token\r\ncontract GenericERC20Stake is ReentrancyGuard {\r\n\r\n    using SafeMath for uint256;\r\n\r\n    // Maps stakeholders to their staking amount\r\n    mapping(address => UserInfo) public userInfo;\r\n    address public GE20;\r\n\r\n    // Holds a list of all stakers\r\n    address[] private _stakeHolders;\r\n    uint256 private _totalStakes;\r\n    \r\n    constructor(address genericERC20Address) {\r\n        GE20 = genericERC20Address;\r\n    }\r\n\r\n    struct UserInfo {\r\n        uint256 amountStaked;\r\n        string waxWalletAddress;\r\n        bool exists;\r\n    }\r\n\r\n    function getTotalStakes() external view returns (uint256) {\r\n        return _totalStakes;\r\n    }\r\n\r\n    // Returns an array of all the stakeholders\r\n    function getStakerInfo() external view returns(uint256, address[] memory, uint256[] memory) {\r\n        address[] memory wallets = new address[](_stakeHolders.length);\r\n        uint256[] memory allStakes = new uint256[](_stakeHolders.length);\r\n        for (uint256 i = 0; i < _stakeHolders.length; i++) {\r\n            wallets[i] =  _stakeHolders[i];\r\n            allStakes[i] = userInfo[_stakeHolders[i]].amountStaked;\r\n        }\r\n        return (_totalStakes, wallets, allStakes);\r\n    }\r\n\r\n    // Creates a stake, adds the user to list of stakeholders, and transfers staked amount to contract\r\n    function deposit(uint256 amount, string calldata waxAddress) external nonReentrant returns(uint256, uint256){\r\n        require(IGenericERC20(GE20).balanceOf(msg.sender) > 0, 'cannot stake without coin');\r\n        require(IGenericERC20(GE20).balanceOf(msg.sender) >= amount, 'cannot stake more than you have');\r\n        require(bytes(waxAddress).length <= 24, \"invalid WAX address\");\r\n        require(IGenericERC20(GE20).transferFrom(address(msg.sender), address(this), amount), 'transfer into contract');\r\n\r\n        UserInfo storage user = userInfo[msg.sender];\r\n\r\n        if(!user.exists && user.amountStaked == 0) {\r\n\r\n            _addStakeHolder(msg.sender, waxAddress);\r\n        }\r\n        else {\r\n            user.waxWalletAddress = waxAddress;\r\n        }\r\n\r\n        user.amountStaked = user.amountStaked.add(amount);\r\n        _totalStakes = IGenericERC20(GE20).balanceOf(address(this));\r\n\r\n        emit Deposit(msg.sender, amount);\r\n\r\n        return (user.amountStaked, _totalStakes);\r\n    }\r\n\r\n    // Removes a user's stake and transfers the balance back to them\r\n    function withdraw(uint256 amount) external nonReentrant returns (uint256, uint256){\r\n        require(amount > 0, 'cannot unstake negative amounts');\r\n\r\n        UserInfo storage user = userInfo[msg.sender];\r\n\r\n        require(amount <= user.amountStaked, 'cannot unstake more than staked');\r\n\r\n        user.amountStaked = user.amountStaked.sub(amount);\r\n\r\n        require(IGenericERC20(GE20).transfer(msg.sender, amount), 'transfer out of contract');\r\n\r\n        if (user.exists && user.amountStaked == 0) {\r\n            _removeStakeHolder(msg.sender);\r\n        }\r\n\r\n        _totalStakes = IGenericERC20(GE20).balanceOf(address(this));\r\n\r\n        emit Withdraw(msg.sender, amount);\r\n\r\n        return (user.amountStaked, _totalStakes);\r\n    }\r\n\r\n    // Change the wax address associated with a stake\r\n    function changeWaxAddress(string calldata waxAddress) external nonReentrant {\r\n        require(bytes(waxAddress).length <= 24, \"invalid WAX address\");\r\n\r\n        UserInfo storage user = userInfo[msg.sender];\r\n\r\n        require (user.exists && user.amountStaked > 0, \"stakeholder does not exist\");\r\n\r\n        user.waxWalletAddress = waxAddress;\r\n    }\r\n\r\n    // Adds a stakeholder\r\n    function _addStakeHolder(address stakeholderAddress, string calldata waxAddress) private {\r\n        _stakeHolders.push(stakeholderAddress);\r\n        userInfo[stakeholderAddress].exists = true;\r\n    }\r\n\r\n    // Removes a stakeholder\r\n    function _removeStakeHolder(address stakeholderAddress) private {\r\n        (bool isStakeholder, uint256 index) = _isStakeHolder(stakeholderAddress);\r\n        if (isStakeholder) {\r\n            delete(userInfo[stakeholderAddress]);\r\n            _stakeHolders[index] = _stakeHolders[_stakeHolders.length - 1];\r\n            _stakeHolders.pop();\r\n        }\r\n    }\r\n\r\n    // Checks if someone is a stakeholder, return the index if they exist\r\n    function _isStakeHolder(address stakeholderAddress) private view returns (bool exists, uint256 index) {\r\n        exists = false;\r\n        index = 0;\r\n        for (uint256 i = 0; i < _stakeHolders.length; i++) {\r\n            if (stakeholderAddress == _stakeHolders[i]) {\r\n                exists = true;\r\n                index = i;\r\n                break;\r\n            }\r\n        }\r\n    }\r\n\r\n\r\n    event Deposit(address indexed user, uint256 amount);\r\n    event Withdraw(address indexed user, uint256 amount);\r\n\r\n}\r\n",
  "sourcePath": "H:\\erc-20-token\\erc-20-staking\\contracts\\GenericERC20Stake.sol",
  "compiler": {
    "name": "solc",
    "version": "0.8.0+commit.c7dfd78e.Emscripten.clang"
  },
  "schemaVersion": "3.4.6",
  "updatedAt": "2022-09-20T16:09:44.638Z",
  "networkType": "ethereum",
  "devdoc": {
    "kind": "dev",
    "methods": {},
    "version": 1
  },
  "userdoc": {
    "kind": "user",
    "methods": {},
    "version": 1
  }
}